:020000040000FA
:0400000076EF04F0A3
:100800000020676F746F205F73746172747570007D
:0108100000E7
:100812007DEC04F0F28E89B011EF04F014EF04F0D5
:10082200010E15EF04F0000EFF0A016E8950011847
:10083200FE0B0118896E8AB221EF04F024EF04F056
:10084200010E25EF04F0000EFF0A016E01468A50E8
:100852000118FD0B01188A6E8AB432EF04F035EFED
:1008620004F0010E36EF04F0000EFF0A016E01469D
:1008720001468A500118FB0B01188A6E8AB644EFB2
:1008820004F047EF04F0010E48EF04F0000EFF0AF7
:10089200016E0146014601468A500118F70B011804
:1008A2008A6E330E026EBB0E016EE00EE82EFED78C
:1008B200012EFCD7022EFAD70CEF04F000EF00F065
:1008C200000E8D6E000E8C6E000E896E000E8A6E0A
:1008D200000E8B6E070E966EFE0E926EE00E936EFB
:1008E200470E946E9568F18E1200000EF86E080E97
:0E08F200F76E000109EF04F061EC04F0120053
:020000040020DA
:08000000FFFFFFFFFFFFFFFF00
:020000040030CA
:0E000000240E3F1EFF8181FF0FC00FA00F4096
:00000001FF
